S0210000333238502D50726F6A6563742D3878384C45444D61747269782E73726563B3
S113000033C000004CC000004AC0000048C00000DB
S113001046C0000044C0000042C0000040C00000D0
S11300203EC000003CC000003AC0000038C00000E0
S113003036C0000034C0000032C0000030C00000F0
S11300402EC000002CC000002AC0000028C0000000
S113005026C0000024C0000022C0000020C0000010
S11300601EC000001CC0000011241FBECFEFD8E04A
S1130070DEBFCDBF11E0A0E0B1E0EAE8F1E002C0EC
S113008005900D92AA3AB107D9F721E0AAEAB1E0A6
S113009001C01D92AB3AB207E1F76FD074C0B0CF84
S11300A0EF92FF920F931F93CF93DF93A0E0B1E001
S11300B00F2EFAE0EF2EF1E0FF2EF02D21E030E0DC
S11300C0D0E0C0E08D918093AA0142E350E047C0A4
S11300D084309105D4F4F901082E02C0EE0FFF1FFD
S11300E00A94E2F7E5B9E091AA018C0168E0E69F81
S11300F0000D111D1124F801EE0FFF1FE65FFE4FE6
S1130100E081E095EBB918B81AC0FC013497890175
S113011002C0000F111FEA95E2F708B9E091AA01A5
S1130120BC0108E0E09F600D711D1124FB01EE0F7E
S1130130FF1FE65FFE4FE081E095EBB915B8EFEBEA
S1130140F2E13197F1F700C0000015B818B8019634
S11301508830910509F0BCCF4150510919F08D2F19
S11301609C2FB6CFAE15BF0509F0ACCFDF91CF9170
S11301701F910F91FF90EF9008958FEF8AB984B982
S10D018087B98EDFFECFF894FFCF9D
S113018A000102030405060708093C006600C300CF
S113019AC300C300C30066003C00100018001C0022
S11301AA1800180018007E007E0038007C006C00DD
S11301BA300018000C007E007E007E00FE00C000A5
S11301CAFC00FC00C000FE007E00660066006600BB
S11301DA7E007E006000600060007F007F000300F4
S11301EA3F007F0060007F003F007E007F00030025
S11301FA3F007F0063007F003F00FF00FF006000B4
S113020A300018000C00060003007E00FF00C30043
S113021AFF00FF00C300FF007E007E00FF00C30052
S10D022AFF00FE00C000C000C00089
S9030000FC
