:1000000033C000004CC000004AC0000049C00000DE
:1000100046C0000044C0000042C0000040C00000D4
:100020003EC000003CC000003AC000005BC00000C1
:1000300036C0000034C0000046C0000030C00000E0
:100040002EC000002CC000002AC0000028C0000004
:1000500026C0000024C0000022C0000020C0000014
:100060001EC000001CC0000011241FBECFEFD8E04E
:10007000DEBFCDBF11E0A0E0B1E0E6E7F2E002C0F4
:1000800005900D92A03AB107D9F721E0A0EAB1E0BE
:1000900001C01D92A33AB207E1F7B2D0EAC0B0CFD7
:1000A0001F920F920FB60F9211248F931F9905C0C4
:1000B0008091A2018F5F8093A2018F910F900FBE5C
:1000C0000F901F9018951F920F920FB60F92112448
:1000D0008F9381E08093A1018F910F900FBE0F90BD
:1000E0001F9018951F920F920FB60F9211240F9028
:1000F0000FBE0F901F901895CF9315B818B862E3F4
:1001000070E0C0E0B0E041E050E0A0E84BC08430D7
:100110009105D4F49A01082E02C0220F331F0A94CD
:10012000E2F7206825B92091A001FC0138E0239F67
:10013000E00DF11D1124EE0FFF1FE050FF4F208155
:1001400020952BB918B81AC09C0124503109FA0126
:1001500002C0EE0FFF1F2A95E2F7E8B92091A00137
:10016000FC0138E0239FE00DF11D1124EE0FFF1F6D
:10017000E050FF4F208120952BB9A5B92091A10116
:10018000213021F02091A1012130E1F71092A1014D
:10019000A5B918B801968830910509F0B8CF61501B
:1001A000710919F08C2F9B2FB2CFCF910895E0E801
:1001B000F0E0808188608083E1E8F0E08081856004
:1001C0008083EFE6F0E08081826080838DE89BE5AC
:1001D00090938900809388000895EBE7F0E0808198
:1001E0008360808385B5856085BD84B5826084BD6C
:1001F000EEE6F0E080818260808388E087BD08952C
:100200008FEF8AB99FE794B987B92F9AE8E6F0E0B3
:10021000808181608083EBE6F0E080818160808373
:100220007894C5DFDADFD4E6C0E08091A2018111C5
:100230000BC01DC08091A1018130E1F71092A10196
:100240002150310919F407C02D2F3C2F8091A101B5
:10025000813081F7F3CF8091A001893019F4109299
:10026000A00103C08F5F8093A0011092A20144DF20
:06027000DCCFF894FFCF83
:100276003C006600C300C300C300C30066003C0028
:10028600100018001C001800180018007E007E00E0
:1002960038007C006C00300018000C007E007E00E8
:1002A6007E00FE00C000FC00FC00C000FE007E00D8
:1002B6006600660066007E007E00600060006000EA
:1002C6007F007F0003003F007F0060007F003F004B
:1002D6007E007F0003003F007F0063007F003F0039
:1002E600FF00FF006000300018000C00060003004D
:1002F6007E00FF00C300FF00FF00C300FF007E007A
:100306007E00FF00C300FF00FE00C000C000C0006A
:00000001FF
