:1000000033C000004CC000004AC00000ECC000003B
:1000100046C0000044C0000042C0000040C00000D4
:100020003EC000003CC000003AC00000FCC0000020
:1000300036C0000034C00000E7C0000030C000003F
:100040002EC000002CC000002AC0000028C0000004
:1000500026C0000024C0000022C0000020C0000014
:100060001EC000001CC0000011241FBECFEFD8E04E
:10007000DEBFCDBF11E0A0E0B1E0E0E5F3E002C0FB
:1000800005900D92A23AB107D9F721E0A2EAB1E0BA
:1000900001C01D92A73AB207E1F7FDD057C1B0CF1A
:1000A00015B818B880E090E041E050E060E8843096
:1000B0009105D4F49A01082E02C0220F331F0A942E
:1000C000E2F7206825B92091A301FC0138E0239FC5
:1000D000E00DF11D1124EE0FFF1FEF5FFE4F208199
:1000E00020952BB918B81AC09C0124503109FA0187
:1000F00002C0EE0FFF1F2A95E2F7E8B92091A30195
:10010000FC0138E0239FE00DF11D1124EE0FFF1FCD
:10011000EF5FFE4F208120952BB965B92091A50195
:10012000213021F02091A5012130E1F71092A501A5
:1001300065B918B801968830910509F0B8CF0895CF
:100140001092A3018091A201883020F01092A201A8
:1001500080E002C0843068F421E030E0A90102C0F0
:10016000440F551F8A95E2F7CA01806885B918B80F
:1001700033C0845021E030E0A90102C0440F551F74
:100180008A95E2F7CA01806888B915B825C0CF0101
:10019000042E02C0880F991F0A94E2F780958BB94C
:1001A000272F362F09C08091A5018130E1F71092E9
:1001B000A5012150310929F08091A501813099F7DD
:1001C000F6CF4F5F5F4F4830510509F78091A2018C
:1001D0008F5F8093A201089540E050E0E1E0F0E0FD
:1001E00074E660E0D4CF1F920F920FB60F921124E5
:1001F0008F931F9903C081E08093A6018F910F9088
:100200000FBE0F901F9018951F920F920FB60F926E
:1002100011248F9381E08093A5018F910F900FBEE1
:100220000F901F9018951F920F920FB60F921124E6
:100230008F9381E08093A4018F910F900FBE0F9058
:100240001F901895E0E8F0E0808188608083E1E805
:10025000F0E0808185608083EFE6F0E0808182605D
:10026000808385E89EE190938900809388000895BB
:10027000EBE7F0E080818360808385B5856085BD94
:1002800084B5826084BDEEE6F0E080818260808388
:100290008AE087BD08958FEF8AB99FE794B987B93F
:1002A0002F9AE8E6F0E0808181608083EBE6F0E061
:1002B0008081816080837894C5DFDADF00EA10E016
:1002C0000F2EFAE0FF2EF02D0F2EF8ECDF2EF02D82
:1002D000E12CC0E5D0E058018091A601813001F504
:1002E000F09200012D2D3E2D09C08091A501813095
:1002F000E1F71092A5012150310929F08091A50163
:10030000813099F7F6CF8091A301893019F41092CA
:10031000A30103C08F5F8093A3011092A6018E01F9
:100320008091A401813079F480910001813021F421
:10033000F0920001850105C08091000181508093F9
:1003400000011092A401F8010995C6CFF894FFCFDF
:100350000A3C006600C300C300C300C30066003C43
:1003600000100018001C001800180018007E007E05
:100370000038007C006C00300018000C007E007E0D
:10038000007E00FE00C000FC00FC00C000FE007EFD
:10039000006600660066007E007E0060006000600F
:1003A000007F007F0003003F007F0060007F003F70
:1003B000007E007F0003003F007F0063007F003F5E
:1003C00000FF00FF006000300018000C0006000372
:1003D000007E00FF00C300FF00FF00C300FF007E9F
:1003E000007E00FF00C300FF00FE00C000C000C090
:0203F00000000B
:00000001FF
