S0210000333238502D50726F6A6563742D3878384C45444D61747269782E73726563B3
S113000033C000004CC000004AC0000049C00000DA
S113001046C0000044C0000042C0000040C00000D0
S11300203EC000003CC000003AC0000038C00000E0
S113003036C0000034C0000032C0000030C00000F0
S11300402EC000002CC000002AC0000028C0000000
S113005026C0000024C0000022C0000020C0000010
S11300601EC000001CC0000011241FBECFEFD8E04A
S1130070DEBFCDBF11E0A0E0B1E0E6EDF1E002C0EB
S113008005900D92A03AB107D9F721E0A0EAB1E0BA
S113009001C01D92A23AB207E1F76FD09AC0B0CF67
S11300A01F920F920FB60F9211248F931F9905C0C0
S11300B08091A1018F5F8093A1018F910F900FBE5A
S11300C00F901F901895CF93DF9315B818B862E37B
S11300D070E0D0E0C0E041E050E0B0E8AB2F47C0B2
S11300E084309105D4F49A01082E02C0220F331FE4
S11300F00A94E2F7206825B92091A001FC0138E0B8
S1130100239FE00DF11D1124EE0FFF1FE050FF4F60
S1130110208120952BB918B81AC09C0124503109AC
S1130120FA0102C0EE0FFF1F2A95E2F7E8B9209109
S1130130A001FC0138E0239FE00DF11D1124EE0F16
S1130140FF1FE050FF4F208120952BB9B5B9EFEB8D
S1130150F2E13197F1F700C00000A5B918B8019693
S11301608830910509F0BCCF6150710919F08D2FC9
S11301709C2FB6CFDF91CF9108958FEF8AB99FE777
S113018094B987B92F9AE8E6F0E080818160808392
S1130190EBE6F0E080818160808378948091A10116
S11301A08823A9F02FEF8AE693E021508040904005
S11301B0E1F700C000008091A001893019F4109289
S11301C0A00103C08F5F8093A0011092A1017BDF87
S10901D0E5CFF894FFCF17
S11301D63C006600C300C300C300C30066003C00C5
S11301E6100018001C001800180018007E007E007D
S11301F638007C006C00300018000C007E007E0085
S11302067E00FE00C000FC00FC00C000FE007E0074
S11302166600660066007E007E0060006000600086
S11302267F007F0003003F007F0060007F003F00E7
S11302367E007F0003003F007F0063007F003F00D5
S1130246FF00FF006000300018000C0006000300E9
S11302567E00FF00C300FF00FF00C300FF007E0016
S11302667E00FF00C300FF00FE00C000C000C00007
S9030000FC
