:1000000033C000004CC000004AC0000049C00000DE
:1000100046C0000044C0000042C0000040C00000D4
:100020003EC000003CC000003AC0000059C00000C3
:1000300036C0000034C0000044C0000030C00000E2
:100040002EC000002CC000002AC0000028C0000004
:1000500026C0000024C0000022C0000020C0000014
:100060001EC000001CC0000011241FBECFEFD8E04E
:10007000DEBFCDBF11E0A0E0B1E0E8E4F3E002C0F4
:1000800005900D92A23AB107D9F721E0A2EAB1E0BA
:1000900001C01D92A63AB207E1F705D153C1B0CF16
:1000A0001F920F920FB60F9211248F931F9903C0C6
:1000B00081E08093A5018F910F900FBE0F901F904C
:1000C00018951F920F920FB60F9211248F9381E013
:1000D0008093A4018F910F900FBE0F901F901895E1
:1000E0001F920F920FB60F9211248F9381E080938D
:1000F000A3018F910F900FBE0F901F901895CF9373
:1001000015B818B862E370E0C0E0B0E041E050E03C
:10011000A0E84BC084309105D4F49A01082E02C0A7
:10012000220F331F0A94E2F7206825B92091A2011B
:10013000FC0138E0239FE00DF11D1124EE0FFF1F9D
:10014000EF5FFE4F208120952BB918B81AC09C0193
:1001500024503109FA0102C0EE0FFF1F2A95E2F781
:10016000E8B92091A201FC0138E0239FE00DF11DC8
:100170001124EE0FFF1FEF5FFE4F208120952BB95A
:10018000A5B92091A401213021F02091A4012130B2
:10019000E1F71092A401A5B918B80196883091052D
:1001A00009F0B8CF6150710919F08C2F9B2FB2CF95
:1001B000CF910895CF93DF93A0E0B0E061E070E0CD
:1001C000D0E0C0E0F4E6E0E0A430B1055CF4CB019F
:1001D0000A2E02C0880F991F0A94E2F7806885B939
:1001E00018B832C0CD0104979B0102C0220F331F03
:1001F0008A95E2F7C901806888B915B825C0CB0196
:10020000042E02C0880F991F0A94E2F780958BB9DB
:100210002F2F3E2F09C08091A4018130E1F7109269
:10022000A4012150310929F08091A401813099F76E
:10023000F6CF4F5F5F4F4830510509F71196A83050
:10024000B10509F0C1CF03C04D2F5C2FD8CFDF918E
:10025000CF910895E0E8F0E0808188608083E1E854
:10026000F0E0808185608083EFE6F0E0808182604D
:10027000808385E89EE190938900809388000895AB
:10028000EBE7F0E080818360808385B5856085BD84
:1002900084B5826084BDEEE6F0E080818260808378
:1002A0008AE087BD08958FEF8AB99FE794B987B92F
:1002B0002F9AE8E6F0E0808181608083EBE6F0E051
:1002C0008081816080837894C5DFDADFCAE018EC32
:1002D000D0E08091A501813001F5C0930001212F6C
:1002E0003D2F09C08091A4018130E1F71092A40153
:1002F0002150310929F08091A401813099F7F6CF7E
:100300008091A201893019F41092A20103C08F5F7D
:100310008093A2011092A501F2DE8091A3018130A9
:1003200079F480910001813021F4C093000142DF13
:1003300005C0809100018150809300011092A301BB
:08034000DEDEC7CFF894FFCF09
:100348000A3C006600C300C300C300C30066003C4B
:1003580000100018001C001800180018007E007E0D
:100368000038007C006C00300018000C007E007E15
:10037800007E00FE00C000FC00FC00C000FE007E05
:10038800006600660066007E007E00600060006017
:10039800007F007F0003003F007F0060007F003F78
:1003A800007E007F0003003F007F0063007F003F66
:1003B80000FF00FF006000300018000C000600037A
:1003C800007E00FF00C300FF00FF00C300FF007EA7
:1003D800007E00FF00C300FF00FE00C000C000C098
:0203E800000013
:00000001FF
